{
  "_format": "hh-sol-artifact-1",
  "contractName": "LazyNFT",
  "sourceName": "contracts/LazyNFT.sol",
  "abi": [
    {
      "inputs": [],
      "stateMutability": "nonpayable",
      "type": "constructor"
    },
    {
      "anonymous": false,
      "inputs": [
        {
          "indexed": true,
          "internalType": "address",
          "name": "owner",
          "type": "address"
        },
        {
          "indexed": true,
          "internalType": "address",
          "name": "approved",
          "type": "address"
        },
        {
          "indexed": true,
          "internalType": "uint256",
          "name": "tokenId",
          "type": "uint256"
        }
      ],
      "name": "Approval",
      "type": "event"
    },
    {
      "anonymous": false,
      "inputs": [
        {
          "indexed": true,
          "internalType": "address",
          "name": "owner",
          "type": "address"
        },
        {
          "indexed": true,
          "internalType": "address",
          "name": "operator",
          "type": "address"
        },
        {
          "indexed": false,
          "internalType": "bool",
          "name": "approved",
          "type": "bool"
        }
      ],
      "name": "ApprovalForAll",
      "type": "event"
    },
    {
      "anonymous": false,
      "inputs": [
        {
          "indexed": true,
          "internalType": "bytes32",
          "name": "role",
          "type": "bytes32"
        },
        {
          "indexed": true,
          "internalType": "bytes32",
          "name": "previousAdminRole",
          "type": "bytes32"
        },
        {
          "indexed": true,
          "internalType": "bytes32",
          "name": "newAdminRole",
          "type": "bytes32"
        }
      ],
      "name": "RoleAdminChanged",
      "type": "event"
    },
    {
      "anonymous": false,
      "inputs": [
        {
          "indexed": true,
          "internalType": "bytes32",
          "name": "role",
          "type": "bytes32"
        },
        {
          "indexed": true,
          "internalType": "address",
          "name": "account",
          "type": "address"
        },
        {
          "indexed": true,
          "internalType": "address",
          "name": "sender",
          "type": "address"
        }
      ],
      "name": "RoleGranted",
      "type": "event"
    },
    {
      "anonymous": false,
      "inputs": [
        {
          "indexed": true,
          "internalType": "bytes32",
          "name": "role",
          "type": "bytes32"
        },
        {
          "indexed": true,
          "internalType": "address",
          "name": "account",
          "type": "address"
        },
        {
          "indexed": true,
          "internalType": "address",
          "name": "sender",
          "type": "address"
        }
      ],
      "name": "RoleRevoked",
      "type": "event"
    },
    {
      "anonymous": false,
      "inputs": [
        {
          "indexed": true,
          "internalType": "address",
          "name": "from",
          "type": "address"
        },
        {
          "indexed": true,
          "internalType": "address",
          "name": "to",
          "type": "address"
        },
        {
          "indexed": true,
          "internalType": "uint256",
          "name": "tokenId",
          "type": "uint256"
        }
      ],
      "name": "Transfer",
      "type": "event"
    },
    {
      "inputs": [],
      "name": "DEFAULT_ADMIN_ROLE",
      "outputs": [
        {
          "internalType": "bytes32",
          "name": "",
          "type": "bytes32"
        }
      ],
      "stateMutability": "view",
      "type": "function"
    },
    {
      "inputs": [],
      "name": "MINTER_ROLE",
      "outputs": [
        {
          "internalType": "bytes32",
          "name": "",
          "type": "bytes32"
        }
      ],
      "stateMutability": "view",
      "type": "function"
    },
    {
      "inputs": [
        {
          "internalType": "uint256",
          "name": "tokenId",
          "type": "uint256"
        },
        {
          "internalType": "uint256",
          "name": "minPrice",
          "type": "uint256"
        },
        {
          "internalType": "string",
          "name": "uri",
          "type": "string"
        },
        {
          "internalType": "bytes",
          "name": "signature",
          "type": "bytes"
        }
      ],
      "name": "_verify",
      "outputs": [
        {
          "internalType": "address",
          "name": "",
          "type": "address"
        }
      ],
      "stateMutability": "view",
      "type": "function"
    },
    {
      "inputs": [
        {
          "internalType": "address",
          "name": "to",
          "type": "address"
        },
        {
          "internalType": "uint256",
          "name": "tokenId",
          "type": "uint256"
        }
      ],
      "name": "approve",
      "outputs": [],
      "stateMutability": "nonpayable",
      "type": "function"
    },
    {
      "inputs": [
        {
          "internalType": "address",
          "name": "owner",
          "type": "address"
        }
      ],
      "name": "balanceOf",
      "outputs": [
        {
          "internalType": "uint256",
          "name": "",
          "type": "uint256"
        }
      ],
      "stateMutability": "view",
      "type": "function"
    },
    {
      "inputs": [
        {
          "internalType": "uint256",
          "name": "tokenId",
          "type": "uint256"
        }
      ],
      "name": "getApproved",
      "outputs": [
        {
          "internalType": "address",
          "name": "",
          "type": "address"
        }
      ],
      "stateMutability": "view",
      "type": "function"
    },
    {
      "inputs": [],
      "name": "getChainID",
      "outputs": [
        {
          "internalType": "uint256",
          "name": "",
          "type": "uint256"
        }
      ],
      "stateMutability": "view",
      "type": "function"
    },
    {
      "inputs": [],
      "name": "getMinter",
      "outputs": [
        {
          "internalType": "address",
          "name": "",
          "type": "address"
        }
      ],
      "stateMutability": "view",
      "type": "function"
    },
    {
      "inputs": [
        {
          "internalType": "bytes32",
          "name": "role",
          "type": "bytes32"
        }
      ],
      "name": "getRoleAdmin",
      "outputs": [
        {
          "internalType": "bytes32",
          "name": "",
          "type": "bytes32"
        }
      ],
      "stateMutability": "view",
      "type": "function"
    },
    {
      "inputs": [
        {
          "internalType": "bytes32",
          "name": "role",
          "type": "bytes32"
        },
        {
          "internalType": "address",
          "name": "account",
          "type": "address"
        }
      ],
      "name": "grantRole",
      "outputs": [],
      "stateMutability": "nonpayable",
      "type": "function"
    },
    {
      "inputs": [
        {
          "internalType": "bytes32",
          "name": "role",
          "type": "bytes32"
        },
        {
          "internalType": "address",
          "name": "account",
          "type": "address"
        }
      ],
      "name": "hasRole",
      "outputs": [
        {
          "internalType": "bool",
          "name": "",
          "type": "bool"
        }
      ],
      "stateMutability": "view",
      "type": "function"
    },
    {
      "inputs": [
        {
          "internalType": "address",
          "name": "owner",
          "type": "address"
        },
        {
          "internalType": "address",
          "name": "operator",
          "type": "address"
        }
      ],
      "name": "isApprovedForAll",
      "outputs": [
        {
          "internalType": "bool",
          "name": "",
          "type": "bool"
        }
      ],
      "stateMutability": "view",
      "type": "function"
    },
    {
      "inputs": [],
      "name": "name",
      "outputs": [
        {
          "internalType": "string",
          "name": "",
          "type": "string"
        }
      ],
      "stateMutability": "view",
      "type": "function"
    },
    {
      "inputs": [
        {
          "internalType": "uint256",
          "name": "tokenId",
          "type": "uint256"
        }
      ],
      "name": "ownerOf",
      "outputs": [
        {
          "internalType": "address",
          "name": "",
          "type": "address"
        }
      ],
      "stateMutability": "view",
      "type": "function"
    },
    {
      "inputs": [
        {
          "internalType": "address",
          "name": "redeemer",
          "type": "address"
        },
        {
          "internalType": "uint256",
          "name": "tokenId",
          "type": "uint256"
        },
        {
          "internalType": "uint256",
          "name": "minPrice",
          "type": "uint256"
        },
        {
          "internalType": "string",
          "name": "uri",
          "type": "string"
        },
        {
          "internalType": "bytes",
          "name": "signature",
          "type": "bytes"
        }
      ],
      "name": "redeem",
      "outputs": [],
      "stateMutability": "payable",
      "type": "function"
    },
    {
      "inputs": [
        {
          "internalType": "bytes32",
          "name": "role",
          "type": "bytes32"
        },
        {
          "internalType": "address",
          "name": "account",
          "type": "address"
        }
      ],
      "name": "renounceRole",
      "outputs": [],
      "stateMutability": "nonpayable",
      "type": "function"
    },
    {
      "inputs": [
        {
          "internalType": "bytes32",
          "name": "role",
          "type": "bytes32"
        },
        {
          "internalType": "address",
          "name": "account",
          "type": "address"
        }
      ],
      "name": "revokeRole",
      "outputs": [],
      "stateMutability": "nonpayable",
      "type": "function"
    },
    {
      "inputs": [
        {
          "internalType": "address",
          "name": "from",
          "type": "address"
        },
        {
          "internalType": "address",
          "name": "to",
          "type": "address"
        },
        {
          "internalType": "uint256",
          "name": "tokenId",
          "type": "uint256"
        }
      ],
      "name": "safeTransferFrom",
      "outputs": [],
      "stateMutability": "nonpayable",
      "type": "function"
    },
    {
      "inputs": [
        {
          "internalType": "address",
          "name": "from",
          "type": "address"
        },
        {
          "internalType": "address",
          "name": "to",
          "type": "address"
        },
        {
          "internalType": "uint256",
          "name": "tokenId",
          "type": "uint256"
        },
        {
          "internalType": "bytes",
          "name": "_data",
          "type": "bytes"
        }
      ],
      "name": "safeTransferFrom",
      "outputs": [],
      "stateMutability": "nonpayable",
      "type": "function"
    },
    {
      "inputs": [
        {
          "internalType": "address",
          "name": "operator",
          "type": "address"
        },
        {
          "internalType": "bool",
          "name": "approved",
          "type": "bool"
        }
      ],
      "name": "setApprovalForAll",
      "outputs": [],
      "stateMutability": "nonpayable",
      "type": "function"
    },
    {
      "inputs": [
        {
          "internalType": "bytes4",
          "name": "interfaceId",
          "type": "bytes4"
        }
      ],
      "name": "supportsInterface",
      "outputs": [
        {
          "internalType": "bool",
          "name": "",
          "type": "bool"
        }
      ],
      "stateMutability": "view",
      "type": "function"
    },
    {
      "inputs": [],
      "name": "symbol",
      "outputs": [
        {
          "internalType": "string",
          "name": "",
          "type": "string"
        }
      ],
      "stateMutability": "view",
      "type": "function"
    },
    {
      "inputs": [
        {
          "internalType": "uint256",
          "name": "tokenId",
          "type": "uint256"
        }
      ],
      "name": "tokenURI",
      "outputs": [
        {
          "internalType": "string",
          "name": "",
          "type": "string"
        }
      ],
      "stateMutability": "view",
      "type": "function"
    },
    {
      "inputs": [
        {
          "internalType": "address",
          "name": "from",
          "type": "address"
        },
        {
          "internalType": "address",
          "name": "to",
          "type": "address"
        },
        {
          "internalType": "uint256",
          "name": "tokenId",
          "type": "uint256"
        }
      ],
      "name": "transferFrom",
      "outputs": [],
      "stateMutability": "nonpayable",
      "type": "function"
    }
  ],
  "bytecode": "0x6101406040523480156200001257600080fd5b506040518060400160405280600f81526020017f4c617a794e46542d566f756368657200000000000000000000000000000000008152506040518060400160405280600181526020017f31000000000000000000000000000000000000000000000000000000000000008152506040518060400160405280600881526020017f4c617a794d494e540000000000000000000000000000000000000000000000008152506040518060400160405280600481526020017f4c415a590000000000000000000000000000000000000000000000000000000081525081600090805190602001906200010392919062000216565b5080600190805190602001906200011c92919062000216565b50505060008280519060200120905060008280519060200120905060007f8b73c3c69bb8fe3d512ecc4cf759cc79239f7b179b0ffacaa9a75d522b39400f90508260e081815250508161010081815250504660a0818152505062000188818484620001da60201b60201c565b608081815250503073ffffffffffffffffffffffffffffffffffffffff1660c08173ffffffffffffffffffffffffffffffffffffffff1660601b81525050806101208181525050505050505062000403565b60008383834630604051602001620001f7959493929190620002f9565b6040516020818303038152906040528051906020012090509392505050565b82805462000224906200039e565b90600052602060002090601f01602090048101928262000248576000855562000294565b82601f106200026357805160ff191683800117855562000294565b8280016001018555821562000294579182015b828111156200029357825182559160200191906001019062000276565b5b509050620002a39190620002a7565b5090565b5b80821115620002c2576000816000905550600101620002a8565b5090565b620002d18162000356565b82525050565b620002e2816200036a565b82525050565b620002f38162000394565b82525050565b600060a082019050620003106000830188620002d7565b6200031f6020830187620002d7565b6200032e6040830186620002d7565b6200033d6060830185620002e8565b6200034c6080830184620002c6565b9695505050505050565b6000620003638262000374565b9050919050565b6000819050919050565b600073ffffffffffffffffffffffffffffffffffffffff82169050919050565b6000819050919050565b60006002820490506001821680620003b757607f821691505b60208210811415620003ce57620003cd620003d4565b5b50919050565b7f4e487b7100000000000000000000000000000000000000000000000000000000600052602260045260246000fd5b60805160a05160c05160601c60e05161010051610120516149b6620004566000396000612aff01526000612b4101526000612b2001526000612a5501526000612aab01526000612ad401526149b66000f3fe60806040526004361061014b5760003560e01c806380da95ed116100b6578063c87b56dd1161006f578063c87b56dd146104a5578063d5391393146104e2578063d547741f1461050d578063e985e9c514610536578063f2a1741f14610573578063f3667517146105b05761014b565b806380da95ed146103a457806391d14854146103c057806395d89b41146103fd578063a217fddf14610428578063a22cb46514610453578063b88d4fde1461047c5761014b565b80632f2ff15d116101085780632f2ff15d1461028457806336568abe146102ad57806342842e0e146102d6578063564b81ef146102ff5780636352211e1461032a57806370a08231146103675761014b565b806301ffc9a71461015057806306fdde031461018d578063081812fc146101b8578063095ea7b3146101f557806323b872dd1461021e578063248a9ca314610247575b600080fd5b34801561015c57600080fd5b50610177600480360381019061017291906131e8565b6105db565b6040516101849190613903565b60405180910390f35b34801561019957600080fd5b506101a26105ed565b6040516101af9190613a16565b60405180910390f35b3480156101c457600080fd5b506101df60048036038101906101da919061323a565b61067f565b6040516101ec919061389c565b60405180910390f35b34801561020157600080fd5b5061021c600480360381019061021791906130a0565b610704565b005b34801561022a57600080fd5b5061024560048036038101906102409190612f9a565b61081c565b005b34801561025357600080fd5b5061026e60048036038101906102699190613183565b61087c565b60405161027b919061391e565b60405180910390f35b34801561029057600080fd5b506102ab60048036038101906102a691906131ac565b61089c565b005b3480156102b957600080fd5b506102d460048036038101906102cf91906131ac565b6108bd565b005b3480156102e257600080fd5b506102fd60048036038101906102f89190612f9a565b610940565b005b34801561030b57600080fd5b50610314610960565b6040516103219190613d58565b60405180910390f35b34801561033657600080fd5b50610351600480360381019061034c919061323a565b61096d565b60405161035e919061389c565b60405180910390f35b34801561037357600080fd5b5061038e60048036038101906103899190612f35565b610a1f565b60405161039b9190613d58565b60405180910390f35b6103be60048036038101906103b991906130dc565b610ad7565b005b3480156103cc57600080fd5b506103e760048036038101906103e291906131ac565b610d55565b6040516103f49190613903565b60405180910390f35b34801561040957600080fd5b50610412610dc0565b60405161041f9190613a16565b60405180910390f35b34801561043457600080fd5b5061043d610e52565b60405161044a919061391e565b60405180910390f35b34801561045f57600080fd5b5061047a60048036038101906104759190613064565b610e59565b005b34801561048857600080fd5b506104a3600480360381019061049e9190612fe9565b610e6f565b005b3480156104b157600080fd5b506104cc60048036038101906104c7919061323a565b610ed1565b6040516104d99190613a16565b60405180910390f35b3480156104ee57600080fd5b506104f7611023565b604051610504919061391e565b60405180910390f35b34801561051957600080fd5b50610534600480360381019061052f91906131ac565b611047565b005b34801561054257600080fd5b5061055d60048036038101906105589190612f5e565b611068565b60405161056a9190613903565b60405180910390f35b34801561057f57600080fd5b5061059a60048036038101906105959190613263565b6110fc565b6040516105a7919061389c565b60405180910390f35b3480156105bc57600080fd5b506105c5611121565b6040516105d2919061389c565b60405180910390f35b60006105e68261114b565b9050919050565b6060600080546105fc90614054565b80601f016020809104026020016040519081016040528092919081815260200182805461062890614054565b80156106755780601f1061064a57610100808354040283529160200191610675565b820191906000526020600020905b81548152906001019060200180831161065857829003601f168201915b5050505050905090565b600061068a826111c5565b6106c9576040517f08c379a00000000000000000000000000000000000000000000000000000000081526004016106c090613c98565b60405180910390fd5b6004600083815260200190815260200160002060009054906101000a900473ffffffffffffffffffffffffffffffffffffffff169050919050565b600061070f8261096d565b90508073ffffffffffffffffffffffffffffffffffffffff168373ffffffffffffffffffffffffffffffffffffffff161415610780576040517f08c379a000000000000000000000000000000000000000000000000000000000815260040161077790613cd8565b60405180910390fd5b8073ffffffffffffffffffffffffffffffffffffffff1661079f611231565b73ffffffffffffffffffffffffffffffffffffffff1614806107ce57506107cd816107c8611231565b611068565b5b61080d576040517f08c379a000000000000000000000000000000000000000000000000000000000815260040161080490613b98565b60405180910390fd5b6108178383611239565b505050565b61082d610827611231565b826112f2565b61086c576040517f08c379a000000000000000000000000000000000000000000000000000000000815260040161086390613d18565b60405180910390fd5b6108778383836113d0565b505050565b600060076000838152602001908152602001600020600101549050919050565b6108a58261087c565b6108ae81611637565b6108b8838361164b565b505050565b6108c5611231565b73ffffffffffffffffffffffffffffffffffffffff168173ffffffffffffffffffffffffffffffffffffffff1614610932576040517f08c379a000000000000000000000000000000000000000000000000000000000815260040161092990613d38565b60405180910390fd5b61093c828261172c565b5050565b61095b83838360405180602001604052806000815250610e6f565b505050565b6000804690508091505090565b6000806002600084815260200190815260200160002060009054906101000a900473ffffffffffffffffffffffffffffffffffffffff169050600073ffffffffffffffffffffffffffffffffffffffff168173ffffffffffffffffffffffffffffffffffffffff161415610a16576040517f08c379a0000000000000000000000000000000000000000000000000000000008152600401610a0d90613bd8565b60405180910390fd5b80915050919050565b60008073ffffffffffffffffffffffffffffffffffffffff168273ffffffffffffffffffffffffffffffffffffffff161415610a90576040517f08c379a0000000000000000000000000000000000000000000000000000000008152600401610a8790613bb8565b60405180910390fd5b600360008373ffffffffffffffffffffffffffffffffffffffff1673ffffffffffffffffffffffffffffffffffffffff168152602001908152602001600020549050919050565b610ae3848484846110fc565b600860006101000a81548173ffffffffffffffffffffffffffffffffffffffff021916908373ffffffffffffffffffffffffffffffffffffffff160217905550610b4e600860009054906101000a900473ffffffffffffffffffffffffffffffffffffffff1661180e565b610b9a7f9f2df0fed2c77648de5860a4cc508cd0818c85b8b8a1ab4ceeef8d981c8956a6600860009054906101000a900473ffffffffffffffffffffffffffffffffffffffff16610d55565b610bd9576040517f08c379a0000000000000000000000000000000000000000000000000000000008152600401610bd090613cf8565b60405180910390fd5b82341015610c1c576040517f08c379a0000000000000000000000000000000000000000000000000000000008152600401610c1390613c38565b60405180910390fd5b610c48600860009054906101000a900473ffffffffffffffffffffffffffffffffffffffff168561189e565b610c528483611a78565b610c7f600860009054906101000a900473ffffffffffffffffffffffffffffffffffffffff1686866113d0565b6000600860009054906101000a900473ffffffffffffffffffffffffffffffffffffffff1673ffffffffffffffffffffffffffffffffffffffff1634604051610cc79061384d565b60006040518083038185875af1925050503d8060008114610d04576040519150601f19603f3d011682016040523d82523d6000602084013e610d09565b606091505b5050905080610d4d576040517f08c379a0000000000000000000000000000000000000000000000000000000008152600401610d4490613af8565b60405180910390fd5b505050505050565b60006007600084815260200190815260200160002060000160008373ffffffffffffffffffffffffffffffffffffffff1673ffffffffffffffffffffffffffffffffffffffff16815260200190815260200160002060009054906101000a900460ff16905092915050565b606060018054610dcf90614054565b80601f0160208091040260200160405190810160405280929190818152602001828054610dfb90614054565b8015610e485780601f10610e1d57610100808354040283529160200191610e48565b820191906000526020600020905b815481529060010190602001808311610e2b57829003601f168201915b5050505050905090565b6000801b81565b610e6b610e64611231565b8383611aec565b5050565b610e80610e7a611231565b836112f2565b610ebf576040517f08c379a0000000000000000000000000000000000000000000000000000000008152600401610eb690613d18565b60405180910390fd5b610ecb84848484611c59565b50505050565b6060610edc826111c5565b610f1b576040517f08c379a0000000000000000000000000000000000000000000000000000000008152600401610f1290613c78565b60405180910390fd5b6000600660008481526020019081526020016000208054610f3b90614054565b80601f0160208091040260200160405190810160405280929190818152602001828054610f6790614054565b8015610fb45780601f10610f8957610100808354040283529160200191610fb4565b820191906000526020600020905b815481529060010190602001808311610f9757829003601f168201915b505050505090506000610fc5611cb5565b9050600081511415610fdb57819250505061101e565b600082511115611010578082604051602001610ff89291906137f2565b6040516020818303038152906040529250505061101e565b61101984611ccc565b925050505b919050565b7f9f2df0fed2c77648de5860a4cc508cd0818c85b8b8a1ab4ceeef8d981c8956a681565b6110508261087c565b61105981611637565b611063838361172c565b505050565b6000600560008473ffffffffffffffffffffffffffffffffffffffff1673ffffffffffffffffffffffffffffffffffffffff16815260200190815260200160002060008373ffffffffffffffffffffffffffffffffffffffff1673ffffffffffffffffffffffffffffffffffffffff16815260200190815260200160002060009054906101000a900460ff16905092915050565b60008061110a868686611d73565b90506111168184611dda565b915050949350505050565b6000600860009054906101000a900473ffffffffffffffffffffffffffffffffffffffff16905090565b60007f7965db0b000000000000000000000000000000000000000000000000000000007bffffffffffffffffffffffffffffffffffffffffffffffffffffffff1916827bffffffffffffffffffffffffffffffffffffffffffffffffffffffff191614806111be57506111bd82611e01565b5b9050919050565b60008073ffffffffffffffffffffffffffffffffffffffff166002600084815260200190815260200160002060009054906101000a900473ffffffffffffffffffffffffffffffffffffffff1673ffffffffffffffffffffffffffffffffffffffff1614159050919050565b600033905090565b816004600083815260200190815260200160002060006101000a81548173ffffffffffffffffffffffffffffffffffffffff021916908373ffffffffffffffffffffffffffffffffffffffff160217905550808273ffffffffffffffffffffffffffffffffffffffff166112ac8361096d565b73ffffffffffffffffffffffffffffffffffffffff167f8c5be1e5ebec7d5bd14f71427d1e84f3dd0314c0f7b2291e5b200ac8c7c3b92560405160405180910390a45050565b60006112fd826111c5565b61133c576040517f08c379a000000000000000000000000000000000000000000000000000000000815260040161133390613b78565b60405180910390fd5b60006113478361096d565b90508073ffffffffffffffffffffffffffffffffffffffff168473ffffffffffffffffffffffffffffffffffffffff16148061138957506113888185611068565b5b806113c757508373ffffffffffffffffffffffffffffffffffffffff166113af8461067f565b73ffffffffffffffffffffffffffffffffffffffff16145b91505092915050565b8273ffffffffffffffffffffffffffffffffffffffff166113f08261096d565b73ffffffffffffffffffffffffffffffffffffffff1614611446576040517f08c379a000000000000000000000000000000000000000000000000000000000815260040161143d90613ab8565b60405180910390fd5b600073ffffffffffffffffffffffffffffffffffffffff168273ffffffffffffffffffffffffffffffffffffffff1614156114b6576040517f08c379a00000000000000000000000000000000000000000000000000000000081526004016114ad90613b18565b60405180910390fd5b6114c1838383611ee3565b6114cc600082611239565b6001600360008573ffffffffffffffffffffffffffffffffffffffff1673ffffffffffffffffffffffffffffffffffffffff168152602001908152602001600020600082825461151c9190613f29565b925050819055506001600360008473ffffffffffffffffffffffffffffffffffffffff1673ffffffffffffffffffffffffffffffffffffffff16815260200190815260200160002060008282546115739190613e48565b92505081905550816002600083815260200190815260200160002060006101000a81548173ffffffffffffffffffffffffffffffffffffffff021916908373ffffffffffffffffffffffffffffffffffffffff160217905550808273ffffffffffffffffffffffffffffffffffffffff168473ffffffffffffffffffffffffffffffffffffffff167fddf252ad1be2c89b69c2b068fc378daa952ba7f163c4a11628f55a4df523b3ef60405160405180910390a4611632838383611ee8565b505050565b61164881611643611231565b611eed565b50565b6116558282610d55565b6117285760016007600084815260200190815260200160002060000160008373ffffffffffffffffffffffffffffffffffffffff1673ffffffffffffffffffffffffffffffffffffffff16815260200190815260200160002060006101000a81548160ff0219169083151502179055506116cd611231565b73ffffffffffffffffffffffffffffffffffffffff168173ffffffffffffffffffffffffffffffffffffffff16837f2f8788117e7eff1d82e926ec794901d17c78024a50270940304540a733656f0d60405160405180910390a45b5050565b6117368282610d55565b1561180a5760006007600084815260200190815260200160002060000160008373ffffffffffffffffffffffffffffffffffffffff1673ffffffffffffffffffffffffffffffffffffffff16815260200190815260200160002060006101000a81548160ff0219169083151502179055506117af611231565b73ffffffffffffffffffffffffffffffffffffffff168173ffffffffffffffffffffffffffffffffffffffff16837ff6391f5c32d9c69d2a47ea670b442974b53935d1edc7fd64eb21e047a839171b60405160405180910390a45b5050565b80600860006101000a81548173ffffffffffffffffffffffffffffffffffffffff021916908373ffffffffffffffffffffffffffffffffffffffff16021790555061189b7f9f2df0fed2c77648de5860a4cc508cd0818c85b8b8a1ab4ceeef8d981c8956a6600860009054906101000a900473ffffffffffffffffffffffffffffffffffffffff16611f8a565b50565b600073ffffffffffffffffffffffffffffffffffffffff168273ffffffffffffffffffffffffffffffffffffffff16141561190e576040517f08c379a000000000000000000000000000000000000000000000000000000000815260040161190590613c58565b60405180910390fd5b611917816111c5565b15611957576040517f08c379a000000000000000000000000000000000000000000000000000000000815260040161194e90613ad8565b60405180910390fd5b61196360008383611ee3565b6001600360008473ffffffffffffffffffffffffffffffffffffffff1673ffffffffffffffffffffffffffffffffffffffff16815260200190815260200160002060008282546119b39190613e48565b92505081905550816002600083815260200190815260200160002060006101000a81548173ffffffffffffffffffffffffffffffffffffffff021916908373ffffffffffffffffffffffffffffffffffffffff160217905550808273ffffffffffffffffffffffffffffffffffffffff16600073ffffffffffffffffffffffffffffffffffffffff167fddf252ad1be2c89b69c2b068fc378daa952ba7f163c4a11628f55a4df523b3ef60405160405180910390a4611a7460008383611ee8565b5050565b611a81826111c5565b611ac0576040517f08c379a0000000000000000000000000000000000000000000000000000000008152600401611ab790613bf8565b60405180910390fd5b80600660008481526020019081526020016000209080519060200190611ae7929190612d44565b505050565b8173ffffffffffffffffffffffffffffffffffffffff168373ffffffffffffffffffffffffffffffffffffffff161415611b5b576040517f08c379a0000000000000000000000000000000000000000000000000000000008152600401611b5290613b38565b60405180910390fd5b80600560008573ffffffffffffffffffffffffffffffffffffffff1673ffffffffffffffffffffffffffffffffffffffff16815260200190815260200160002060008473ffffffffffffffffffffffffffffffffffffffff1673ffffffffffffffffffffffffffffffffffffffff16815260200190815260200160002060006101000a81548160ff0219169083151502179055508173ffffffffffffffffffffffffffffffffffffffff168373ffffffffffffffffffffffffffffffffffffffff167f17307eab39ab6107e8899845ad3d59bd9653f200f220920489ca2b5937696c3183604051611c4c9190613903565b60405180910390a3505050565b611c648484846113d0565b611c7084848484611f98565b611caf576040517f08c379a0000000000000000000000000000000000000000000000000000000008152600401611ca690613a98565b60405180910390fd5b50505050565b606060405180602001604052806000815250905090565b6060611cd7826111c5565b611d16576040517f08c379a0000000000000000000000000000000000000000000000000000000008152600401611d0d90613cb8565b60405180910390fd5b6000611d20611cb5565b90506000815111611d405760405180602001604052806000815250611d6b565b80611d4a8461212f565b604051602001611d5b9291906137f2565b6040516020818303038152906040525b915050919050565b6000611dd17f6316f9ddd4d59a364f3b95c26bab9d392c3380ace0fff15e91ed76f0d8bcd15a85858580519060200120604051602001611db6949392919061398c565b604051602081830303815290604052805190602001206122dc565b90509392505050565b6000806000611de985856122f6565b91509150611df681612379565b819250505092915050565b60007f80ac58cd000000000000000000000000000000000000000000000000000000007bffffffffffffffffffffffffffffffffffffffffffffffffffffffff1916827bffffffffffffffffffffffffffffffffffffffffffffffffffffffff19161480611ecc57507f5b5e139f000000000000000000000000000000000000000000000000000000007bffffffffffffffffffffffffffffffffffffffffffffffffffffffff1916827bffffffffffffffffffffffffffffffffffffffffffffffffffffffff1916145b80611edc5750611edb826126ca565b5b9050919050565b505050565b505050565b611ef78282610d55565b611f8657611f1c8173ffffffffffffffffffffffffffffffffffffffff166014612734565b611f2a8360001c6020612734565b604051602001611f3b929190613862565b6040516020818303038152906040526040517f08c379a0000000000000000000000000000000000000000000000000000000008152600401611f7d9190613a16565b60405180910390fd5b5050565b611f94828261164b565b5050565b6000611fb98473ffffffffffffffffffffffffffffffffffffffff16612a2e565b15612122578373ffffffffffffffffffffffffffffffffffffffff1663150b7a02611fe2611231565b8786866040518563ffffffff1660e01b815260040161200494939291906138b7565b602060405180830381600087803b15801561201e57600080fd5b505af192505050801561204f57506040513d601f19601f8201168201806040525081019061204c9190613211565b60015b6120d2573d806000811461207f576040519150601f19603f3d011682016040523d82523d6000602084013e612084565b606091505b506000815114156120ca576040517f08c379a00000000000000000000000000000000000000000000000000000000081526004016120c190613a98565b60405180910390fd5b805181602001fd5b63150b7a0260e01b7bffffffffffffffffffffffffffffffffffffffffffffffffffffffff1916817bffffffffffffffffffffffffffffffffffffffffffffffffffffffff191614915050612127565b600190505b949350505050565b60606000821415612177576040518060400160405280600181526020017f300000000000000000000000000000000000000000000000000000000000000081525090506122d7565b600082905060005b600082146121a9578080612192906140b7565b915050600a826121a29190613e9e565b915061217f565b60008167ffffffffffffffff8111156121eb577f4e487b7100000000000000000000000000000000000000000000000000000000600052604160045260246000fd5b6040519080825280601f01601f19166020018201604052801561221d5781602001600182028036833780820191505090505b5090505b600085146122d0576001826122369190613f29565b9150600a85612245919061410a565b60306122519190613e48565b60f81b81838151811061228d577f4e487b7100000000000000000000000000000000000000000000000000000000600052603260045260246000fd5b60200101907effffffffffffffffffffffffffffffffffffffffffffffffffffffffffffff1916908160001a905350600a856122c99190613e9e565b9450612221565b8093505050505b919050565b60006122ef6122e9612a51565b83612b6b565b9050919050565b6000806041835114156123385760008060006020860151925060408601519150606086015160001a905061232c87828585612b9e565b94509450505050612372565b60408351141561236957600080602085015191506040850151905061235e868383612cab565b935093505050612372565b60006002915091505b9250929050565b600060048111156123b3577f4e487b7100000000000000000000000000000000000000000000000000000000600052602160045260246000fd5b8160048111156123ec577f4e487b7100000000000000000000000000000000000000000000000000000000600052602160045260246000fd5b14156123f7576126c7565b60016004811115612431577f4e487b7100000000000000000000000000000000000000000000000000000000600052602160045260246000fd5b81600481111561246a577f4e487b7100000000000000000000000000000000000000000000000000000000600052602160045260246000fd5b14156124ab576040517f08c379a00000000000000000000000000000000000000000000000000000000081526004016124a290613a38565b60405180910390fd5b600260048111156124e5577f4e487b7100000000000000000000000000000000000000000000000000000000600052602160045260246000fd5b81600481111561251e577f4e487b7100000000000000000000000000000000000000000000000000000000600052602160045260246000fd5b141561255f576040517f08c379a000000000000000000000000000000000000000000000000000000000815260040161255690613a78565b60405180910390fd5b60036004811115612599577f4e487b7100000000000000000000000000000000000000000000000000000000600052602160045260246000fd5b8160048111156125d2577f4e487b7100000000000000000000000000000000000000000000000000000000600052602160045260246000fd5b1415612613576040517f08c379a000000000000000000000000000000000000000000000000000000000815260040161260a90613b58565b60405180910390fd5b60048081111561264c577f4e487b7100000000000000000000000000000000000000000000000000000000600052602160045260246000fd5b816004811115612685577f4e487b7100000000000000000000000000000000000000000000000000000000600052602160045260246000fd5b14156126c6576040517f08c379a00000000000000000000000000000000000000000000000000000000081526004016126bd90613c18565b60405180910390fd5b5b50565b60007f01ffc9a7000000000000000000000000000000000000000000000000000000007bffffffffffffffffffffffffffffffffffffffffffffffffffffffff1916827bffffffffffffffffffffffffffffffffffffffffffffffffffffffff1916149050919050565b6060600060028360026127479190613ecf565b6127519190613e48565b67ffffffffffffffff811115612790577f4e487b7100000000000000000000000000000000000000000000000000000000600052604160045260246000fd5b6040519080825280601f01601f1916602001820160405280156127c25781602001600182028036833780820191505090505b5090507f300000000000000000000000000000000000000000000000000000000000000081600081518110612820577f4e487b7100000000000000000000000000000000000000000000000000000000600052603260045260246000fd5b60200101907effffffffffffffffffffffffffffffffffffffffffffffffffffffffffffff1916908160001a9053507f7800000000000000000000000000000000000000000000000000000000000000816001815181106128aa577f4e487b7100000000000000000000000000000000000000000000000000000000600052603260045260246000fd5b60200101907effffffffffffffffffffffffffffffffffffffffffffffffffffffffffffff1916908160001a905350600060018460026128ea9190613ecf565b6128f49190613e48565b90505b60018111156129e0577f3031323334353637383961626364656600000000000000000000000000000000600f86166010811061295c577f4e487b7100000000000000000000000000000000000000000000000000000000600052603260045260246000fd5b1a60f81b828281518110612999577f4e487b7100000000000000000000000000000000000000000000000000000000600052603260045260246000fd5b60200101907effffffffffffffffffffffffffffffffffffffffffffffffffffffffffffff1916908160001a905350600485901c9450806129d99061402a565b90506128f7565b5060008414612a24576040517f08c379a0000000000000000000000000000000000000000000000000000000008152600401612a1b90613a58565b60405180910390fd5b8091505092915050565b6000808273ffffffffffffffffffffffffffffffffffffffff163b119050919050565b60007f000000000000000000000000000000000000000000000000000000000000000073ffffffffffffffffffffffffffffffffffffffff163073ffffffffffffffffffffffffffffffffffffffff16148015612acd57507f000000000000000000000000000000000000000000000000000000000000000046145b15612afa577f00000000000000000000000000000000000000000000000000000000000000009050612b68565b612b657f00000000000000000000000000000000000000000000000000000000000000007f00000000000000000000000000000000000000000000000000000000000000007f0000000000000000000000000000000000000000000000000000000000000000612d0a565b90505b90565b60008282604051602001612b80929190613816565b60405160208183030381529060405280519060200120905092915050565b6000807f7fffffffffffffffffffffffffffffff5d576e7357a4501ddfe92f46681b20a08360001c1115612bd9576000600391509150612ca2565b601b8560ff1614158015612bf15750601c8560ff1614155b15612c03576000600491509150612ca2565b600060018787878760405160008152602001604052604051612c2894939291906139d1565b6020604051602081039080840390855afa158015612c4a573d6000803e3d6000fd5b505050602060405103519050600073ffffffffffffffffffffffffffffffffffffffff168173ffffffffffffffffffffffffffffffffffffffff161415612c9957600060019250925050612ca2565b80600092509250505b94509492505050565b60008060007f7fffffffffffffffffffffffffffffffffffffffffffffffffffffffffffffff60001b841690506000601b60ff8660001c901c612cee9190613e48565b9050612cfc87828885612b9e565b935093505050935093915050565b60008383834630604051602001612d25959493929190613939565b6040516020818303038152906040528051906020012090509392505050565b828054612d5090614054565b90600052602060002090601f016020900481019282612d725760008555612db9565b82601f10612d8b57805160ff1916838001178555612db9565b82800160010185558215612db9579182015b82811115612db8578251825591602001919060010190612d9d565b5b509050612dc69190612dca565b5090565b5b80821115612de3576000816000905550600101612dcb565b5090565b6000612dfa612df584613d98565b613d73565b905082815260208101848484011115612e1257600080fd5b612e1d848285613fe8565b509392505050565b6000612e38612e3384613dc9565b613d73565b905082815260208101848484011115612e5057600080fd5b612e5b848285613fe8565b509392505050565b600081359050612e728161490d565b92915050565b600081359050612e8781614924565b92915050565b600081359050612e9c8161493b565b92915050565b600081359050612eb181614952565b92915050565b600081519050612ec681614952565b92915050565b600082601f830112612edd57600080fd5b8135612eed848260208601612de7565b91505092915050565b600082601f830112612f0757600080fd5b8135612f17848260208601612e25565b91505092915050565b600081359050612f2f81614969565b92915050565b600060208284031215612f4757600080fd5b6000612f5584828501612e63565b91505092915050565b60008060408385031215612f7157600080fd5b6000612f7f85828601612e63565b9250506020612f9085828601612e63565b9150509250929050565b600080600060608486031215612faf57600080fd5b6000612fbd86828701612e63565b9350506020612fce86828701612e63565b9250506040612fdf86828701612f20565b9150509250925092565b60008060008060808587031215612fff57600080fd5b600061300d87828801612e63565b945050602061301e87828801612e63565b935050604061302f87828801612f20565b925050606085013567ffffffffffffffff81111561304c57600080fd5b61305887828801612ecc565b91505092959194509250565b6000806040838503121561307757600080fd5b600061308585828601612e63565b925050602061309685828601612e78565b9150509250929050565b600080604083850312156130b357600080fd5b60006130c185828601612e63565b92505060206130d285828601612f20565b9150509250929050565b600080600080600060a086880312156130f457600080fd5b600061310288828901612e63565b955050602061311388828901612f20565b945050604061312488828901612f20565b935050606086013567ffffffffffffffff81111561314157600080fd5b61314d88828901612ef6565b925050608086013567ffffffffffffffff81111561316a57600080fd5b61317688828901612ecc565b9150509295509295909350565b60006020828403121561319557600080fd5b60006131a384828501612e8d565b91505092915050565b600080604083850312156131bf57600080fd5b60006131cd85828601612e8d565b92505060206131de85828601612e63565b9150509250929050565b6000602082840312156131fa57600080fd5b600061320884828501612ea2565b91505092915050565b60006020828403121561322357600080fd5b600061323184828501612eb7565b91505092915050565b60006020828403121561324c57600080fd5b600061325a84828501612f20565b91505092915050565b6000806000806080858703121561327957600080fd5b600061328787828801612f20565b945050602061329887828801612f20565b935050604085013567ffffffffffffffff8111156132b557600080fd5b6132c187828801612ef6565b925050606085013567ffffffffffffffff8111156132de57600080fd5b6132ea87828801612ecc565b91505092959194509250565b6132ff81613f5d565b82525050565b61330e81613f6f565b82525050565b61331d81613f7b565b82525050565b61333461332f82613f7b565b614100565b82525050565b600061334582613dfa565b61334f8185613e10565b935061335f818560208601613ff7565b613368816141f7565b840191505092915050565b600061337e82613e05565b6133888185613e2c565b9350613398818560208601613ff7565b6133a1816141f7565b840191505092915050565b60006133b782613e05565b6133c18185613e3d565b93506133d1818560208601613ff7565b80840191505092915050565b60006133ea601883613e2c565b91506133f582614208565b602082019050919050565b600061340d602083613e2c565b915061341882614231565b602082019050919050565b6000613430601f83613e2c565b915061343b8261425a565b602082019050919050565b6000613453603283613e2c565b915061345e82614283565b604082019050919050565b6000613476602583613e2c565b9150613481826142d2565b604082019050919050565b6000613499601c83613e2c565b91506134a482614321565b602082019050919050565b60006134bc600283613e3d565b91506134c78261434a565b600282019050919050565b60006134df601483613e2c565b91506134ea82614373565b602082019050919050565b6000613502602483613e2c565b915061350d8261439c565b604082019050919050565b6000613525601983613e2c565b9150613530826143eb565b602082019050919050565b6000613548602283613e2c565b915061355382614414565b604082019050919050565b600061356b602c83613e2c565b915061357682614463565b604082019050919050565b600061358e603883613e2c565b9150613599826144b2565b604082019050919050565b60006135b1602a83613e2c565b91506135bc82614501565b604082019050919050565b60006135d4602983613e2c565b91506135df82614550565b604082019050919050565b60006135f7602e83613e2c565b91506136028261459f565b604082019050919050565b600061361a602283613e2c565b9150613625826145ee565b604082019050919050565b600061363d601c83613e2c565b91506136488261463d565b602082019050919050565b6000613660602083613e2c565b915061366b82614666565b602082019050919050565b6000613683603183613e2c565b915061368e8261468f565b604082019050919050565b60006136a6602c83613e2c565b91506136b1826146de565b604082019050919050565b60006136c9602f83613e2c565b91506136d48261472d565b604082019050919050565b60006136ec602183613e2c565b91506136f78261477c565b604082019050919050565b600061370f602183613e2c565b915061371a826147cb565b604082019050919050565b6000613732600083613e21565b915061373d8261481a565b600082019050919050565b6000613755603183613e2c565b91506137608261481d565b604082019050919050565b6000613778601783613e3d565b91506137838261486c565b601782019050919050565b600061379b601183613e3d565b91506137a682614895565b601182019050919050565b60006137be602f83613e2c565b91506137c9826148be565b604082019050919050565b6137dd81613fd1565b82525050565b6137ec81613fdb565b82525050565b60006137fe82856133ac565b915061380a82846133ac565b91508190509392505050565b6000613821826134af565b915061382d8285613323565b60208201915061383d8284613323565b6020820191508190509392505050565b600061385882613725565b9150819050919050565b600061386d8261376b565b915061387982856133ac565b91506138848261378e565b915061389082846133ac565b91508190509392505050565b60006020820190506138b160008301846132f6565b92915050565b60006080820190506138cc60008301876132f6565b6138d960208301866132f6565b6138e660408301856137d4565b81810360608301526138f8818461333a565b905095945050505050565b60006020820190506139186000830184613305565b92915050565b60006020820190506139336000830184613314565b92915050565b600060a08201905061394e6000830188613314565b61395b6020830187613314565b6139686040830186613314565b61397560608301856137d4565b61398260808301846132f6565b9695505050505050565b60006080820190506139a16000830187613314565b6139ae60208301866137d4565b6139bb60408301856137d4565b6139c86060830184613314565b95945050505050565b60006080820190506139e66000830187613314565b6139f360208301866137e3565b613a006040830185613314565b613a0d6060830184613314565b95945050505050565b60006020820190508181036000830152613a308184613373565b905092915050565b60006020820190508181036000830152613a51816133dd565b9050919050565b60006020820190508181036000830152613a7181613400565b9050919050565b60006020820190508181036000830152613a9181613423565b9050919050565b60006020820190508181036000830152613ab181613446565b9050919050565b60006020820190508181036000830152613ad181613469565b9050919050565b60006020820190508181036000830152613af18161348c565b9050919050565b60006020820190508181036000830152613b11816134d2565b9050919050565b60006020820190508181036000830152613b31816134f5565b9050919050565b60006020820190508181036000830152613b5181613518565b9050919050565b60006020820190508181036000830152613b718161353b565b9050919050565b60006020820190508181036000830152613b918161355e565b9050919050565b60006020820190508181036000830152613bb181613581565b9050919050565b60006020820190508181036000830152613bd1816135a4565b9050919050565b60006020820190508181036000830152613bf1816135c7565b9050919050565b60006020820190508181036000830152613c11816135ea565b9050919050565b60006020820190508181036000830152613c318161360d565b9050919050565b60006020820190508181036000830152613c5181613630565b9050919050565b60006020820190508181036000830152613c7181613653565b9050919050565b60006020820190508181036000830152613c9181613676565b9050919050565b60006020820190508181036000830152613cb181613699565b9050919050565b60006020820190508181036000830152613cd1816136bc565b9050919050565b60006020820190508181036000830152613cf1816136df565b9050919050565b60006020820190508181036000830152613d1181613702565b9050919050565b60006020820190508181036000830152613d3181613748565b9050919050565b60006020820190508181036000830152613d51816137b1565b9050919050565b6000602082019050613d6d60008301846137d4565b92915050565b6000613d7d613d8e565b9050613d898282614086565b919050565b6000604051905090565b600067ffffffffffffffff821115613db357613db26141c8565b5b613dbc826141f7565b9050602081019050919050565b600067ffffffffffffffff821115613de457613de36141c8565b5b613ded826141f7565b9050602081019050919050565b600081519050919050565b600081519050919050565b600082825260208201905092915050565b600081905092915050565b600082825260208201905092915050565b600081905092915050565b6000613e5382613fd1565b9150613e5e83613fd1565b9250827fffffffffffffffffffffffffffffffffffffffffffffffffffffffffffffffff03821115613e9357613e9261413b565b5b828201905092915050565b6000613ea982613fd1565b9150613eb483613fd1565b925082613ec457613ec361416a565b5b828204905092915050565b6000613eda82613fd1565b9150613ee583613fd1565b9250817fffffffffffffffffffffffffffffffffffffffffffffffffffffffffffffffff0483118215151615613f1e57613f1d61413b565b5b828202905092915050565b6000613f3482613fd1565b9150613f3f83613fd1565b925082821015613f5257613f5161413b565b5b828203905092915050565b6000613f6882613fb1565b9050919050565b60008115159050919050565b6000819050919050565b60007fffffffff0000000000000000000000000000000000000000000000000000000082169050919050565b600073ffffffffffffffffffffffffffffffffffffffff82169050919050565b6000819050919050565b600060ff82169050919050565b82818337600083830152505050565b60005b83811015614015578082015181840152602081019050613ffa565b83811115614024576000848401525b50505050565b600061403582613fd1565b915060008214156140495761404861413b565b5b600182039050919050565b6000600282049050600182168061406c57607f821691505b602082108114156140805761407f614199565b5b50919050565b61408f826141f7565b810181811067ffffffffffffffff821117156140ae576140ad6141c8565b5b80604052505050565b60006140c282613fd1565b91507fffffffffffffffffffffffffffffffffffffffffffffffffffffffffffffffff8214156140f5576140f461413b565b5b600182019050919050565b6000819050919050565b600061411582613fd1565b915061412083613fd1565b9250826141305761412f61416a565b5b828206905092915050565b7f4e487b7100000000000000000000000000000000000000000000000000000000600052601160045260246000fd5b7f4e487b7100000000000000000000000000000000000000000000000000000000600052601260045260246000fd5b7f4e487b7100000000000000000000000000000000000000000000000000000000600052602260045260246000fd5b7f4e487b7100000000000000000000000000000000000000000000000000000000600052604160045260246000fd5b6000601f19601f8301169050919050565b7f45434453413a20696e76616c6964207369676e61747572650000000000000000600082015250565b7f537472696e67733a20686578206c656e67746820696e73756666696369656e74600082015250565b7f45434453413a20696e76616c6964207369676e6174757265206c656e67746800600082015250565b7f4552433732313a207472616e7366657220746f206e6f6e20455243373231526560008201527f63656976657220696d706c656d656e7465720000000000000000000000000000602082015250565b7f4552433732313a207472616e736665722066726f6d20696e636f72726563742060008201527f6f776e6572000000000000000000000000000000000000000000000000000000602082015250565b7f4552433732313a20746f6b656e20616c7265616479206d696e74656400000000600082015250565b7f1901000000000000000000000000000000000000000000000000000000000000600082015250565b7f4661696c656420746f2073656e64204574686572000000000000000000000000600082015250565b7f4552433732313a207472616e7366657220746f20746865207a65726f2061646460008201527f7265737300000000000000000000000000000000000000000000000000000000602082015250565b7f4552433732313a20617070726f766520746f2063616c6c657200000000000000600082015250565b7f45434453413a20696e76616c6964207369676e6174757265202773272076616c60008201527f7565000000000000000000000000000000000000000000000000000000000000602082015250565b7f4552433732313a206f70657261746f7220717565727920666f72206e6f6e657860008201527f697374656e7420746f6b656e0000000000000000000000000000000000000000602082015250565b7f4552433732313a20617070726f76652063616c6c6572206973206e6f74206f7760008201527f6e6572206e6f7220617070726f76656420666f7220616c6c0000000000000000602082015250565b7f4552433732313a2062616c616e636520717565727920666f7220746865207a6560008201527f726f206164647265737300000000000000000000000000000000000000000000602082015250565b7f4552433732313a206f776e657220717565727920666f72206e6f6e657869737460008201527f656e7420746f6b656e0000000000000000000000000000000000000000000000602082015250565b7f45524337323155524953746f726167653a2055524920736574206f66206e6f6e60008201527f6578697374656e7420746f6b656e000000000000000000000000000000000000602082015250565b7f45434453413a20696e76616c6964207369676e6174757265202776272076616c60008201527f7565000000000000000000000000000000000000000000000000000000000000602082015250565b7f496e73756666696369656e742066756e647320746f2072656465656d00000000600082015250565b7f4552433732313a206d696e7420746f20746865207a65726f2061646472657373600082015250565b7f45524337323155524953746f726167653a2055524920717565727920666f722060008201527f6e6f6e6578697374656e7420746f6b656e000000000000000000000000000000602082015250565b7f4552433732313a20617070726f76656420717565727920666f72206e6f6e657860008201527f697374656e7420746f6b656e0000000000000000000000000000000000000000602082015250565b7f4552433732314d657461646174613a2055524920717565727920666f72206e6f60008201527f6e6578697374656e7420746f6b656e0000000000000000000000000000000000602082015250565b7f4552433732313a20617070726f76616c20746f2063757272656e74206f776e6560008201527f7200000000000000000000000000000000000000000000000000000000000000602082015250565b7f5369676e617475726520696e76616c6964206f7220756e617574686f72697a6560008201527f6400000000000000000000000000000000000000000000000000000000000000602082015250565b50565b7f4552433732313a207472616e736665722063616c6c6572206973206e6f74206f60008201527f776e6572206e6f7220617070726f766564000000000000000000000000000000602082015250565b7f416363657373436f6e74726f6c3a206163636f756e7420000000000000000000600082015250565b7f206973206d697373696e6720726f6c6520000000000000000000000000000000600082015250565b7f416363657373436f6e74726f6c3a2063616e206f6e6c792072656e6f756e636560008201527f20726f6c657320666f722073656c660000000000000000000000000000000000602082015250565b61491681613f5d565b811461492157600080fd5b50565b61492d81613f6f565b811461493857600080fd5b50565b61494481613f7b565b811461494f57600080fd5b50565b61495b81613f85565b811461496657600080fd5b50565b61497281613fd1565b811461497d57600080fd5b5056fea2646970667358221220bdec141de827a373c77ec8134697acc118c3d8cdbd949e7ea941519d2d7fd06b64736f6c63430008040033",
  "linkReferences": {},
  "deployedLinkReferences": {}
}